{
  "_format": "hh-sol-artifact-1",
  "contractName": "Market",
  "sourceName": "contracts/markets/market.contract.sol",
  "abi": [
    {
      "inputs": [
        {
          "internalType": "address",
          "name": "_erc20TokenContractAddress",
          "type": "address"
        },
        {
          "internalType": "address",
          "name": "_erc721TokenContractAddress",
          "type": "address"
        },
        {
          "internalType": "address",
          "name": "_erc1155TokenContractAddress",
          "type": "address"
        }
      ],
      "stateMutability": "nonpayable",
      "type": "constructor"
    },
    {
      "anonymous": false,
      "inputs": [
        {
          "indexed": true,
          "internalType": "address",
          "name": "from",
          "type": "address"
        },
        {
          "indexed": true,
          "internalType": "address",
          "name": "to",
          "type": "address"
        },
        {
          "indexed": false,
          "internalType": "uint256",
          "name": "value",
          "type": "uint256"
        }
      ],
      "name": "Transfer",
      "type": "event"
    },
    {
      "inputs": [],
      "name": "buyERC20Tokens",
      "outputs": [],
      "stateMutability": "payable",
      "type": "function"
    },
    {
      "inputs": [
        {
          "internalType": "string",
          "name": "tokenURI",
          "type": "string"
        },
        {
          "internalType": "uint256",
          "name": "amount",
          "type": "uint256"
        }
      ],
      "name": "createERC1155Token",
      "outputs": [
        {
          "internalType": "uint256",
          "name": "",
          "type": "uint256"
        }
      ],
      "stateMutability": "nonpayable",
      "type": "function"
    },
    {
      "inputs": [
        {
          "internalType": "string",
          "name": "tokenURI",
          "type": "string"
        }
      ],
      "name": "createERC721Token",
      "outputs": [
        {
          "internalType": "uint256",
          "name": "",
          "type": "uint256"
        }
      ],
      "stateMutability": "nonpayable",
      "type": "function"
    },
    {
      "inputs": [],
      "name": "getERC1155Balance",
      "outputs": [
        {
          "internalType": "uint256",
          "name": "",
          "type": "uint256"
        }
      ],
      "stateMutability": "view",
      "type": "function"
    },
    {
      "inputs": [],
      "name": "getERC20Balance",
      "outputs": [
        {
          "internalType": "uint256",
          "name": "",
          "type": "uint256"
        }
      ],
      "stateMutability": "view",
      "type": "function"
    },
    {
      "inputs": [],
      "name": "getERC721Balance",
      "outputs": [
        {
          "internalType": "uint256[]",
          "name": "",
          "type": "uint256[]"
        }
      ],
      "stateMutability": "view",
      "type": "function"
    },
    {
      "inputs": [],
      "name": "getMarketBalance",
      "outputs": [
        {
          "internalType": "uint256",
          "name": "",
          "type": "uint256"
        }
      ],
      "stateMutability": "view",
      "type": "function"
    },
    {
      "inputs": [],
      "name": "withdrawEther",
      "outputs": [],
      "stateMutability": "nonpayable",
      "type": "function"
    },
    {
      "inputs": [],
      "name": "withdrawExcessTokens",
      "outputs": [],
      "stateMutability": "nonpayable",
      "type": "function"
    }
  ],
  "bytecode": "0x608060405234801561001057600080fd5b5060405161110138038061110183398101604081905261002f9161008d565b600080546001600160a01b039485166001600160a01b0319918216179091556001805493851693821693909317909255600280549190931691161790556100d0565b80516001600160a01b038116811461008857600080fd5b919050565b6000806000606084860312156100a257600080fd5b6100ab84610071565b92506100b960208501610071565b91506100c760408501610071565b90509250925092565b611022806100df6000396000f3fe6080604052600436106100865760003560e01c80637c81a8cb116100595780637c81a8cb146100ea578063964eec7014610118578063c3736fe61461012d578063ccf6158114610142578063e4aafcfb1461015757600080fd5b8063435dfc821461008b5780635edc7674146100a257806371abaf28146100aa5780637362377b146100d5575b600080fd5b34801561009757600080fd5b506100a0610177565b005b6100a061034c565b3480156100b657600080fd5b506100bf610592565b6040516100cc9190610c63565b60405180910390f35b3480156100e157600080fd5b506100a0610617565b3480156100f657600080fd5b5061010a610105366004610d5e565b6106d5565b6040519081526020016100cc565b34801561012457600080fd5b5061010a61092b565b34801561013957600080fd5b5061010a6109a8565b34801561014e57600080fd5b5061010a6109d9565b34801561016357600080fd5b5061010a610172366004610d9b565b610a0a565b3373f39fd6e51aad88f6f4ce6ab8827279cfffb92266146101b35760405162461bcd60e51b81526004016101aa90610de0565b60405180910390fd5b600080546040516370a0823160e01b81523060048201526001600160a01b03909116906370a082319060240160206040518083038186803b1580156101f757600080fd5b505afa15801561020b573d6000803e3d6000fd5b505050506040513d601f19601f8201168201806040525081019061022f9190610e2e565b9050600081116102815760405162461bcd60e51b815260206004820152601c60248201527f4e6f2065786365737320746f6b656e7320746f2077697468647261770000000060448201526064016101aa565b60005460405163a9059cbb60e01b8152336004820152602481018390526001600160a01b039091169063a9059cbb90604401602060405180830381600087803b1580156102cd57600080fd5b505af11580156102e1573d6000803e3d6000fd5b505050506040513d601f19601f820116820180604052508101906103059190610e47565b6103495760405162461bcd60e51b8152602060048201526015602482015274151bdad95b881d1c985b9cd9995c8819985a5b1959605a1b60448201526064016101aa565b50565b600034116103a65760405162461bcd60e51b815260206004820152602160248201527f45544820616d6f756e74206d7573742062652067726561746572207468616e206044820152600360fc1b60648201526084016101aa565b633b9aca0060006103b78234610e70565b6000546040516370a0823160e01b815230600482015291925082916001600160a01b03909116906370a082319060240160206040518083038186803b1580156103ff57600080fd5b505afa158015610413573d6000803e3d6000fd5b505050506040513d601f19601f820116820180604052508101906104379190610e2e565b101561048f5760405162461bcd60e51b815260206004820152602160248201527f496e73756666696369656e7420746f6b656e7320696e20746865206d61726b656044820152601d60fa1b60648201526084016101aa565b60005460405163a9059cbb60e01b8152336004820152602481018390526001600160a01b039091169063a9059cbb90604401602060405180830381600087803b1580156104db57600080fd5b505af11580156104ef573d6000803e3d6000fd5b505050506040513d601f19601f820116820180604052508101906105139190610e47565b6105575760405162461bcd60e51b8152602060048201526015602482015274151bdad95b881d1c985b9cd9995c8819985a5b1959605a1b60448201526064016101aa565b604051348152309033907fddf252ad1be2c89b69c2b068fc378daa952ba7f163c4a11628f55a4df523b3ef9060200160405180910390a35050565b6001546040516370a0823160e01b81523360048201526060916001600160a01b0316906370a082319060240160006040518083038186803b1580156105d657600080fd5b505afa1580156105ea573d6000803e3d6000fd5b505050506040513d6000823e601f3d908101601f191682016040526106129190810190610e92565b905090565b3373f39fd6e51aad88f6f4ce6ab8827279cfffb922661461064a5760405162461bcd60e51b81526004016101aa90610de0565b478061068d5760405162461bcd60e51b81526020600482015260126024820152714e6f2045544820746f20776974686472617760701b60448201526064016101aa565b60405173f39fd6e51aad88f6f4ce6ab8827279cfffb922669081906108fc8415029084906000818181858888f193505050501580156106d0573d6000803e3d6000fd5b505050565b600080546040516370a0823160e01b815233600482015260649182916001600160a01b03909116906370a082319060240160206040518083038186803b15801561071e57600080fd5b505afa158015610732573d6000803e3d6000fd5b505050506040513d601f19601f820116820180604052508101906107569190610e2e565b10156107a05760405162461bcd60e51b8152602060048201526019602482015278496e73756666696369656e7420455243323020746f6b656e7360381b60448201526064016101aa565b6000546040516323b872dd60e01b8152336004820152306024820152604481018390526001600160a01b03909116906323b872dd90606401602060405180830381600087803b1580156107f257600080fd5b505af1158015610806573d6000803e3d6000fd5b505050506040513d601f19601f8201168201806040525081019061082a9190610e47565b6108765760405162461bcd60e51b815260206004820152601f60248201527f5472616e73666572206f6620455243323020746f6b656e73206661696c65640060448201526064016101aa565b600042336040516020016108a692919091825260601b6bffffffffffffffffffffffff1916602082015260340190565b60408051601f198184030181529082905280516020909101206001546334ff261960e21b83529092506001600160a01b03169063d3fc9864906108f190339085908990600401610f85565b600060405180830381600087803b15801561090b57600080fd5b505af115801561091f573d6000803e3d6000fd5b50929695505050505050565b600080546040516370a0823160e01b81523060048201526001600160a01b03909116906370a08231906024015b60206040518083038186803b15801561097057600080fd5b505afa158015610984573d6000803e3d6000fd5b505050506040513d601f19601f820116820180604052508101906106129190610e2e565b600080546040516370a0823160e01b81523360048201526001600160a01b03909116906370a0823190602401610958565b600254604051636059d5ab60e11b81523360048201526000916001600160a01b03169063c0b3ab5690602401610958565b600080546040516370a0823160e01b815233600482015260649182916001600160a01b03909116906370a082319060240160206040518083038186803b158015610a5357600080fd5b505afa158015610a67573d6000803e3d6000fd5b505050506040513d601f19601f82011682018060405250810190610a8b9190610e2e565b1015610ad55760405162461bcd60e51b8152602060048201526019602482015278496e73756666696369656e7420455243323020746f6b656e7360381b60448201526064016101aa565b6000546040516323b872dd60e01b8152336004820152306024820152604481018390526001600160a01b03909116906323b872dd90606401602060405180830381600087803b158015610b2757600080fd5b505af1158015610b3b573d6000803e3d6000fd5b505050506040513d601f19601f82011682018060405250810190610b5f9190610e47565b610bab5760405162461bcd60e51b815260206004820152601f60248201527f5472616e73666572206f6620455243323020746f6b656e73206661696c65640060448201526064016101aa565b60004233604051602001610bdb92919091825260601b6bffffffffffffffffffffffff1916602082015260340190565b60408051601f1981840301815290829052805160209091012060025463bd52e1e560e01b83529092506001600160a01b03169063bd52e1e590610c28903390859089908b90600401610fb5565b600060405180830381600087803b158015610c4257600080fd5b505af1158015610c56573d6000803e3d6000fd5b5092979650505050505050565b6020808252825182820181905260009190848201906040850190845b81811015610c9b57835183529284019291840191600101610c7f565b50909695505050505050565b634e487b7160e01b600052604160045260246000fd5b604051601f8201601f1916810167ffffffffffffffff81118282101715610ce657610ce6610ca7565b604052919050565b600082601f830112610cff57600080fd5b813567ffffffffffffffff811115610d1957610d19610ca7565b610d2c601f8201601f1916602001610cbd565b818152846020838601011115610d4157600080fd5b816020850160208301376000918101602001919091529392505050565b600060208284031215610d7057600080fd5b813567ffffffffffffffff811115610d8757600080fd5b610d9384828501610cee565b949350505050565b60008060408385031215610dae57600080fd5b823567ffffffffffffffff811115610dc557600080fd5b610dd185828601610cee565b95602094909401359450505050565b6020808252602e908201527f4f6e6c792074686520636f6e7472616374206f776e65722063616e2063616c6c60408201526d103a3434b990333ab731ba34b7b760911b606082015260800190565b600060208284031215610e4057600080fd5b5051919050565b600060208284031215610e5957600080fd5b81518015158114610e6957600080fd5b9392505050565b600082610e8d57634e487b7160e01b600052601260045260246000fd5b500490565b60006020808385031215610ea557600080fd5b825167ffffffffffffffff80821115610ebd57600080fd5b818501915085601f830112610ed157600080fd5b815181811115610ee357610ee3610ca7565b8060051b9150610ef4848301610cbd565b8181529183018401918481019088841115610f0e57600080fd5b938501935b83851015610f2c57845182529385019390850190610f13565b98975050505050505050565b6000815180845260005b81811015610f5e57602081850181015186830182015201610f42565b81811115610f70576000602083870101525b50601f01601f19169290920160200192915050565b60018060a01b0384168152826020820152606060408201526000610fac6060830184610f38565b95945050505050565b60018060a01b0385168152836020820152826040820152608060608201526000610fe26080830184610f38565b969550505050505056fea2646970667358221220489a54b767a7e7cf5e1841cdbd064ebd585605f63647f9de4e01f7e15efa89fd64736f6c63430008090033",
  "linkReferences": {},
  "deployedLinkReferences": {}
}