{
  "_format": "hh-sol-artifact-1",
  "contractName": "ERC721Interface",
  "sourceName": "contracts/custom-tokens/interfaces/ERC721.interface.sol",
  "abi": [
    {
      "inputs": [
        {
          "internalType": "string",
          "name": "_name",
          "type": "string"
        },
        {
          "internalType": "string",
          "name": "_symbol",
          "type": "string"
        }
      ],
      "stateMutability": "nonpayable",
      "type": "constructor"
    },
    {
      "anonymous": false,
      "inputs": [
        {
          "indexed": true,
          "internalType": "address",
          "name": "owner",
          "type": "address"
        },
        {
          "indexed": true,
          "internalType": "address",
          "name": "approved",
          "type": "address"
        },
        {
          "indexed": true,
          "internalType": "uint256",
          "name": "tokenId",
          "type": "uint256"
        }
      ],
      "name": "Approval",
      "type": "event"
    },
    {
      "anonymous": false,
      "inputs": [
        {
          "indexed": true,
          "internalType": "address",
          "name": "from",
          "type": "address"
        },
        {
          "indexed": true,
          "internalType": "address",
          "name": "to",
          "type": "address"
        },
        {
          "indexed": true,
          "internalType": "uint256",
          "name": "tokenId",
          "type": "uint256"
        }
      ],
      "name": "Transfer",
      "type": "event"
    },
    {
      "anonymous": false,
      "inputs": [
        {
          "indexed": false,
          "internalType": "string",
          "name": "_value",
          "type": "string"
        },
        {
          "indexed": true,
          "internalType": "uint256",
          "name": "_id",
          "type": "uint256"
        }
      ],
      "name": "URI",
      "type": "event"
    },
    {
      "inputs": [
        {
          "internalType": "address",
          "name": "owner",
          "type": "address"
        },
        {
          "internalType": "address",
          "name": "spender",
          "type": "address"
        }
      ],
      "name": "allowance",
      "outputs": [
        {
          "internalType": "uint256",
          "name": "",
          "type": "uint256"
        }
      ],
      "stateMutability": "view",
      "type": "function"
    },
    {
      "inputs": [
        {
          "internalType": "address",
          "name": "to",
          "type": "address"
        },
        {
          "internalType": "uint256",
          "name": "tokenId",
          "type": "uint256"
        }
      ],
      "name": "approve",
      "outputs": [],
      "stateMutability": "nonpayable",
      "type": "function"
    },
    {
      "inputs": [
        {
          "internalType": "address",
          "name": "owner",
          "type": "address"
        }
      ],
      "name": "balanceOf",
      "outputs": [
        {
          "internalType": "uint256[]",
          "name": "",
          "type": "uint256[]"
        }
      ],
      "stateMutability": "view",
      "type": "function"
    },
    {
      "inputs": [
        {
          "internalType": "uint256",
          "name": "tokenId",
          "type": "uint256"
        }
      ],
      "name": "getApproved",
      "outputs": [
        {
          "internalType": "address",
          "name": "",
          "type": "address"
        }
      ],
      "stateMutability": "view",
      "type": "function"
    },
    {
      "inputs": [
        {
          "internalType": "uint256",
          "name": "tokenId",
          "type": "uint256"
        }
      ],
      "name": "getTokenURI",
      "outputs": [
        {
          "internalType": "string",
          "name": "",
          "type": "string"
        }
      ],
      "stateMutability": "view",
      "type": "function"
    },
    {
      "inputs": [
        {
          "internalType": "address",
          "name": "to",
          "type": "address"
        },
        {
          "internalType": "uint256",
          "name": "tokenId",
          "type": "uint256"
        },
        {
          "internalType": "string",
          "name": "tokenURI",
          "type": "string"
        }
      ],
      "name": "mint",
      "outputs": [],
      "stateMutability": "nonpayable",
      "type": "function"
    },
    {
      "inputs": [],
      "name": "name",
      "outputs": [
        {
          "internalType": "string",
          "name": "",
          "type": "string"
        }
      ],
      "stateMutability": "view",
      "type": "function"
    },
    {
      "inputs": [
        {
          "internalType": "uint256",
          "name": "tokenId",
          "type": "uint256"
        }
      ],
      "name": "ownerOf",
      "outputs": [
        {
          "internalType": "address",
          "name": "",
          "type": "address"
        }
      ],
      "stateMutability": "view",
      "type": "function"
    },
    {
      "inputs": [],
      "name": "symbol",
      "outputs": [
        {
          "internalType": "string",
          "name": "",
          "type": "string"
        }
      ],
      "stateMutability": "view",
      "type": "function"
    },
    {
      "inputs": [
        {
          "internalType": "address",
          "name": "to",
          "type": "address"
        },
        {
          "internalType": "uint256",
          "name": "tokenId",
          "type": "uint256"
        }
      ],
      "name": "transfer",
      "outputs": [],
      "stateMutability": "nonpayable",
      "type": "function"
    },
    {
      "inputs": [
        {
          "internalType": "address",
          "name": "from",
          "type": "address"
        },
        {
          "internalType": "address",
          "name": "to",
          "type": "address"
        },
        {
          "internalType": "uint256",
          "name": "tokenId",
          "type": "uint256"
        }
      ],
      "name": "transferFrom",
      "outputs": [],
      "stateMutability": "nonpayable",
      "type": "function"
    }
  ],
  "bytecode": "0x60806040523480156200001157600080fd5b50604051620012fd380380620012fd8339810160408190526200003491620001db565b81516200004990600090602085019062000068565b5080516200005f90600190602084019062000068565b50505062000282565b828054620000769062000245565b90600052602060002090601f0160209004810192826200009a5760008555620000e5565b82601f10620000b557805160ff1916838001178555620000e5565b82800160010185558215620000e5579182015b82811115620000e5578251825591602001919060010190620000c8565b50620000f3929150620000f7565b5090565b5b80821115620000f35760008155600101620000f8565b634e487b7160e01b600052604160045260246000fd5b600082601f8301126200013657600080fd5b81516001600160401b03808211156200015357620001536200010e565b604051601f8301601f19908116603f011681019082821181831017156200017e576200017e6200010e565b816040528381526020925086838588010111156200019b57600080fd5b600091505b83821015620001bf5785820183015181830184015290820190620001a0565b83821115620001d15760008385830101525b9695505050505050565b60008060408385031215620001ef57600080fd5b82516001600160401b03808211156200020757600080fd5b620002158683870162000124565b935060208501519150808211156200022c57600080fd5b506200023b8582860162000124565b9150509250929050565b600181811c908216806200025a57607f821691505b602082108114156200027c57634e487b7160e01b600052602260045260246000fd5b50919050565b61106b80620002926000396000f3fe608060405234801561001057600080fd5b50600436106100a95760003560e01c80636352211e116100715780636352211e1461014857806370a082311461015b57806395d89b411461017b578063a9059cbb14610183578063d3fc986414610196578063dd62ed3e146101a957600080fd5b806306fdde03146100ae578063081812fc146100cc578063095ea7b31461010d57806323b872dd146101225780633bb3a24d14610135575b600080fd5b6100b66101f0565b6040516100c39190610ce5565b60405180910390f35b6100f56100da366004610d3a565b6000908152600660205260409020546001600160a01b031690565b6040516001600160a01b0390911681526020016100c3565b61012061011b366004610d6f565b61027e565b005b610120610130366004610d99565b610353565b6100b6610143366004610d3a565b61064c565b6100f5610156366004610d3a565b610751565b61016e610169366004610dd5565b6107bc565b6040516100c39190610df7565b6100b661084d565b610120610191366004610d6f565b61085a565b6101206101a4366004610e51565b610a8b565b6101e26101b7366004610f1c565b6001600160a01b03918216600090815260076020908152604080832093909416825291909152205490565b6040519081526020016100c3565b600080546101fd90610f4f565b80601f016020809104026020016040519081016040528092919081815260200182805461022990610f4f565b80156102765780601f1061024b57610100808354040283529160200191610276565b820191906000526020600020905b81548152906001019060200180831161025957829003601f168201915b505050505081565b600061028982610751565b9050336001600160a01b038216146102f75760405162461bcd60e51b815260206004820152602660248201527f4552433732313a20596f7520617265206e6f7420616c6c6f77656420746f20616044820152657070726f766560d01b60648201526084015b60405180910390fd5b60008281526006602052604080822080546001600160a01b0319166001600160a01b0387811691821790925591518593918516917f8c5be1e5ebec7d5bd14f71427d1e84f3dd0314c0f7b2291e5b200ac8c7c3b92591a4505050565b600061035e82610751565b9050336001600160a01b038216148061038d57506000828152600660205260409020546001600160a01b031633145b806103bc57506001600160a01b0384166000908152600760209081526040808320338452909152902054600111155b6104085760405162461bcd60e51b815260206004820152601a60248201527f4552433732313a20416c6c6f77616e636520657863656564656400000000000060448201526064016102ee565b836001600160a01b0316816001600160a01b0316146104735760405162461bcd60e51b815260206004820152602160248201527f4552433732313a20546f6b656e206e6f74206f776e6564206279202766726f6d6044820152602760f81b60648201526084016102ee565b6001600160a01b0383166104995760405162461bcd60e51b81526004016102ee90610f8a565b6000828152600560209081526040808320546001600160a01b03881684526003909252909120805484908290849081106104d5576104d5610fc1565b9060005260206000200154146105275760405162461bcd60e51b8152602060048201526017602482015276115490cdcc8c4e88151bdad95b881b9bdd08199bdd5b99604a1b60448201526064016102ee565b8054819061053790600190610fed565b8154811061054757610547610fc1565b906000526020600020015481838154811061056457610564610fc1565b90600052602060002001819055508080548061058257610582611004565b6000828152602080822060001990840181018390559092019092558582526005815260408083208390556004825280832080546001600160a01b0319166001600160a01b038a169081179091558084526003835290832080546001818101835582865293852001889055925290546105fa9190610fed565b60008581526005602052604080822092909255905185916001600160a01b0380891692908a16917fddf252ad1be2c89b69c2b068fc378daa952ba7f163c4a11628f55a4df523b3ef91a4505050505050565b6000818152600460205260409020546060906001600160a01b03166106b35760405162461bcd60e51b815260206004820152601c60248201527f4552433732313a20546f6b656e20646f6573206e6f742065786973740000000060448201526064016102ee565b600082815260086020526040902080546106cc90610f4f565b80601f01602080910402602001604051908101604052809291908181526020018280546106f890610f4f565b80156107455780601f1061071a57610100808354040283529160200191610745565b820191906000526020600020905b81548152906001019060200180831161072857829003601f168201915b50505050509050919050565b6000818152600460205260408120546001600160a01b0316806107b65760405162461bcd60e51b815260206004820152601c60248201527f4552433732313a20546f6b656e20646f6573206e6f742065786973740000000060448201526064016102ee565b92915050565b60606001600160a01b0382166107e45760405162461bcd60e51b81526004016102ee90610f8a565b6001600160a01b0382166000908152600360209081526040918290208054835181840281018401909452808452909183018282801561074557602002820191906000526020600020905b81548152602001906001019080831161082e5750505050509050919050565b600180546101fd90610f4f565b600061086582610751565b9050336001600160a01b038216146108bf5760405162461bcd60e51b815260206004820152601d60248201527f4552433732313a20596f7520617265206e6f7420746865206f776e657200000060448201526064016102ee565b6001600160a01b0383166108e55760405162461bcd60e51b81526004016102ee90610f8a565b60008281526005602090815260408083205433845260039092529091208054849082908490811061091857610918610fc1565b90600052602060002001541461096a5760405162461bcd60e51b8152602060048201526017602482015276115490cdcc8c4e88151bdad95b881b9bdd08199bdd5b99604a1b60448201526064016102ee565b8054819061097a90600190610fed565b8154811061098a5761098a610fc1565b90600052602060002001548183815481106109a7576109a7610fc1565b9060005260206000200181905550808054806109c5576109c5611004565b6000828152602080822060001990840181018390559092019092558582526005815260408083208390556004825280832080546001600160a01b0319166001600160a01b038a16908117909155808452600383529083208054600181810183558286529385200188905592529054610a3d9190610fed565b60008581526005602052604080822092909255905185916001600160a01b0388169133917fddf252ad1be2c89b69c2b068fc378daa952ba7f163c4a11628f55a4df523b3ef91a45050505050565b6001600160a01b038316610ab15760405162461bcd60e51b81526004016102ee90610f8a565b6000828152600460205260409020546001600160a01b031615610b165760405162461bcd60e51b815260206004820152601c60248201527f4552433732313a20546f6b656e20616c7265616479206578697374730000000060448201526064016102ee565b600082815260046020908152604080832080546001600160a01b0319166001600160a01b03881690811790915583526003825282208054600181018255908352908220018390556002805491610b6b8361101a565b90915550506001600160a01b038316600090815260036020526040902054610b9590600190610fed565b600083815260056020908152604080832093909355825180820184528481528583526008825292909120825180519192610bd492849290910190610c4c565b50506040518391506001600160a01b038516906000907fddf252ad1be2c89b69c2b068fc378daa952ba7f163c4a11628f55a4df523b3ef908290a4817f6bb7ff708619ba0610cba295a58592e0451dee2622938c8755667688daf3529b82604051610c3f9190610ce5565b60405180910390a2505050565b828054610c5890610f4f565b90600052602060002090601f016020900481019282610c7a5760008555610cc0565b82601f10610c9357805160ff1916838001178555610cc0565b82800160010185558215610cc0579182015b82811115610cc0578251825591602001919060010190610ca5565b50610ccc929150610cd0565b5090565b5b80821115610ccc5760008155600101610cd1565b600060208083528351808285015260005b81811015610d1257858101830151858201604001528201610cf6565b81811115610d24576000604083870101525b50601f01601f1916929092016040019392505050565b600060208284031215610d4c57600080fd5b5035919050565b80356001600160a01b0381168114610d6a57600080fd5b919050565b60008060408385031215610d8257600080fd5b610d8b83610d53565b946020939093013593505050565b600080600060608486031215610dae57600080fd5b610db784610d53565b9250610dc560208501610d53565b9150604084013590509250925092565b600060208284031215610de757600080fd5b610df082610d53565b9392505050565b6020808252825182820181905260009190848201906040850190845b81811015610e2f57835183529284019291840191600101610e13565b50909695505050505050565b634e487b7160e01b600052604160045260246000fd5b600080600060608486031215610e6657600080fd5b610e6f84610d53565b925060208401359150604084013567ffffffffffffffff80821115610e9357600080fd5b818601915086601f830112610ea757600080fd5b813581811115610eb957610eb9610e3b565b604051601f8201601f19908116603f01168101908382118183101715610ee157610ee1610e3b565b81604052828152896020848701011115610efa57600080fd5b8260208601602083013760006020848301015280955050505050509250925092565b60008060408385031215610f2f57600080fd5b610f3883610d53565b9150610f4660208401610d53565b90509250929050565b600181811c90821680610f6357607f821691505b60208210811415610f8457634e487b7160e01b600052602260045260246000fd5b50919050565b60208082526017908201527f4552433732313a20496e76616c69642061646472657373000000000000000000604082015260600190565b634e487b7160e01b600052603260045260246000fd5b634e487b7160e01b600052601160045260246000fd5b600082821015610fff57610fff610fd7565b500390565b634e487b7160e01b600052603160045260246000fd5b600060001982141561102e5761102e610fd7565b506001019056fea2646970667358221220350e05afec14f72738392908dabd6f15d1cb4184e2f018e605b78ca70434f85164736f6c63430008090033",
  "linkReferences": {},
  "deployedLinkReferences": {}
}