{
  "_format": "hh-sol-artifact-1",
  "contractName": "Market",
  "sourceName": "contracts/markets/market.contract.sol",
  "abi": [
    {
      "inputs": [
        {
          "internalType": "address",
          "name": "_erc20TokenContractAddress",
          "type": "address"
        },
        {
          "internalType": "address",
          "name": "_erc721TokenContractAddress",
          "type": "address"
        },
        {
          "internalType": "address",
          "name": "_erc1155TokenContractAddress",
          "type": "address"
        }
      ],
      "stateMutability": "nonpayable",
      "type": "constructor"
    },
    {
      "anonymous": false,
      "inputs": [
        {
          "indexed": true,
          "internalType": "address",
          "name": "from",
          "type": "address"
        },
        {
          "indexed": true,
          "internalType": "address",
          "name": "to",
          "type": "address"
        },
        {
          "indexed": false,
          "internalType": "uint256",
          "name": "value",
          "type": "uint256"
        }
      ],
      "name": "Transfer",
      "type": "event"
    },
    {
      "inputs": [],
      "name": "buyERC20Tokens",
      "outputs": [],
      "stateMutability": "payable",
      "type": "function"
    },
    {
      "inputs": [
        {
          "internalType": "string",
          "name": "tokenURI",
          "type": "string"
        },
        {
          "internalType": "uint256",
          "name": "amount",
          "type": "uint256"
        }
      ],
      "name": "createERC1155Token",
      "outputs": [
        {
          "internalType": "uint256",
          "name": "",
          "type": "uint256"
        }
      ],
      "stateMutability": "nonpayable",
      "type": "function"
    },
    {
      "inputs": [
        {
          "internalType": "string",
          "name": "tokenURI",
          "type": "string"
        }
      ],
      "name": "createERC721Token",
      "outputs": [
        {
          "internalType": "uint256",
          "name": "",
          "type": "uint256"
        }
      ],
      "stateMutability": "nonpayable",
      "type": "function"
    },
    {
      "inputs": [],
      "name": "getMarketBalance",
      "outputs": [
        {
          "internalType": "uint256",
          "name": "",
          "type": "uint256"
        }
      ],
      "stateMutability": "view",
      "type": "function"
    },
    {
      "inputs": [],
      "name": "withdrawEther",
      "outputs": [],
      "stateMutability": "nonpayable",
      "type": "function"
    },
    {
      "inputs": [],
      "name": "withdrawExcessTokens",
      "outputs": [],
      "stateMutability": "nonpayable",
      "type": "function"
    }
  ],
  "bytecode": "0x608060405234801561001057600080fd5b50604051610e9e380380610e9e83398101604081905261002f9161008d565b600080546001600160a01b039485166001600160a01b0319918216179091556001805493851693821693909317909255600280549190931691161790556100d0565b80516001600160a01b038116811461008857600080fd5b919050565b6000806000606084860312156100a257600080fd5b6100ab84610071565b92506100b960208501610071565b91506100c760408501610071565b90509250925092565b610dbf806100df6000396000f3fe6080604052600436106100555760003560e01c8063435dfc821461005a5780635edc7674146100715780637362377b146100795780637c81a8cb1461008e578063964eec70146100c0578063e4aafcfb146100d5575b600080fd5b34801561006657600080fd5b5061006f6100f5565b005b61006f6102ca565b34801561008557600080fd5b5061006f610510565b34801561009a57600080fd5b506100ae6100a9366004610ba1565b6105ce565b60405190815260200160405180910390f35b3480156100cc57600080fd5b506100ae610824565b3480156100e157600080fd5b506100ae6100f0366004610bde565b6108a5565b3373f39fd6e51aad88f6f4ce6ab8827279cfffb92266146101315760405162461bcd60e51b815260040161012890610c23565b60405180910390fd5b600080546040516370a0823160e01b81523060048201526001600160a01b03909116906370a082319060240160206040518083038186803b15801561017557600080fd5b505afa158015610189573d6000803e3d6000fd5b505050506040513d601f19601f820116820180604052508101906101ad9190610c71565b9050600081116101ff5760405162461bcd60e51b815260206004820152601c60248201527f4e6f2065786365737320746f6b656e7320746f207769746864726177000000006044820152606401610128565b60005460405163a9059cbb60e01b8152336004820152602481018390526001600160a01b039091169063a9059cbb90604401602060405180830381600087803b15801561024b57600080fd5b505af115801561025f573d6000803e3d6000fd5b505050506040513d601f19601f820116820180604052508101906102839190610c8a565b6102c75760405162461bcd60e51b8152602060048201526015602482015274151bdad95b881d1c985b9cd9995c8819985a5b1959605a1b6044820152606401610128565b50565b600034116103245760405162461bcd60e51b815260206004820152602160248201527f45544820616d6f756e74206d7573742062652067726561746572207468616e206044820152600360fc1b6064820152608401610128565b633b9aca0060006103358234610cb3565b6000546040516370a0823160e01b815230600482015291925082916001600160a01b03909116906370a082319060240160206040518083038186803b15801561037d57600080fd5b505afa158015610391573d6000803e3d6000fd5b505050506040513d601f19601f820116820180604052508101906103b59190610c71565b101561040d5760405162461bcd60e51b815260206004820152602160248201527f496e73756666696369656e7420746f6b656e7320696e20746865206d61726b656044820152601d60fa1b6064820152608401610128565b60005460405163a9059cbb60e01b8152336004820152602481018390526001600160a01b039091169063a9059cbb90604401602060405180830381600087803b15801561045957600080fd5b505af115801561046d573d6000803e3d6000fd5b505050506040513d601f19601f820116820180604052508101906104919190610c8a565b6104d55760405162461bcd60e51b8152602060048201526015602482015274151bdad95b881d1c985b9cd9995c8819985a5b1959605a1b6044820152606401610128565b604051348152309033907fddf252ad1be2c89b69c2b068fc378daa952ba7f163c4a11628f55a4df523b3ef9060200160405180910390a35050565b3373f39fd6e51aad88f6f4ce6ab8827279cfffb92266146105435760405162461bcd60e51b815260040161012890610c23565b47806105865760405162461bcd60e51b81526020600482015260126024820152714e6f2045544820746f20776974686472617760701b6044820152606401610128565b60405173f39fd6e51aad88f6f4ce6ab8827279cfffb922669081906108fc8415029084906000818181858888f193505050501580156105c9573d6000803e3d6000fd5b505050565b600080546040516370a0823160e01b815233600482015260649182916001600160a01b03909116906370a082319060240160206040518083038186803b15801561061757600080fd5b505afa15801561062b573d6000803e3d6000fd5b505050506040513d601f19601f8201168201806040525081019061064f9190610c71565b10156106995760405162461bcd60e51b8152602060048201526019602482015278496e73756666696369656e7420455243323020746f6b656e7360381b6044820152606401610128565b6000546040516323b872dd60e01b8152336004820152306024820152604481018390526001600160a01b03909116906323b872dd90606401602060405180830381600087803b1580156106eb57600080fd5b505af11580156106ff573d6000803e3d6000fd5b505050506040513d601f19601f820116820180604052508101906107239190610c8a565b61076f5760405162461bcd60e51b815260206004820152601f60248201527f5472616e73666572206f6620455243323020746f6b656e73206661696c6564006044820152606401610128565b6000423360405160200161079f92919091825260601b6bffffffffffffffffffffffff1916602082015260340190565b60408051601f198184030181529082905280516020909101206001546334ff261960e21b83529092506001600160a01b03169063d3fc9864906107ea90339085908990600401610d22565b600060405180830381600087803b15801561080457600080fd5b505af1158015610818573d6000803e3d6000fd5b50929695505050505050565b600080546040516370a0823160e01b81523060048201526001600160a01b03909116906370a082319060240160206040518083038186803b15801561086857600080fd5b505afa15801561087c573d6000803e3d6000fd5b505050506040513d601f19601f820116820180604052508101906108a09190610c71565b905090565b600080546040516370a0823160e01b815233600482015260649182916001600160a01b03909116906370a082319060240160206040518083038186803b1580156108ee57600080fd5b505afa158015610902573d6000803e3d6000fd5b505050506040513d601f19601f820116820180604052508101906109269190610c71565b10156109705760405162461bcd60e51b8152602060048201526019602482015278496e73756666696369656e7420455243323020746f6b656e7360381b6044820152606401610128565b6000546040516323b872dd60e01b8152336004820152306024820152604481018390526001600160a01b03909116906323b872dd90606401602060405180830381600087803b1580156109c257600080fd5b505af11580156109d6573d6000803e3d6000fd5b505050506040513d601f19601f820116820180604052508101906109fa9190610c8a565b610a465760405162461bcd60e51b815260206004820152601f60248201527f5472616e73666572206f6620455243323020746f6b656e73206661696c6564006044820152606401610128565b60004233604051602001610a7692919091825260601b6bffffffffffffffffffffffff1916602082015260340190565b60408051601f1981840301815290829052805160209091012060025463bd52e1e560e01b83529092506001600160a01b03169063bd52e1e590610ac3903390859089908b90600401610d52565b600060405180830381600087803b158015610add57600080fd5b505af1158015610af1573d6000803e3d6000fd5b5092979650505050505050565b634e487b7160e01b600052604160045260246000fd5b600082601f830112610b2557600080fd5b813567ffffffffffffffff80821115610b4057610b40610afe565b604051601f8301601f19908116603f01168101908282118183101715610b6857610b68610afe565b81604052838152866020858801011115610b8157600080fd5b836020870160208301376000602085830101528094505050505092915050565b600060208284031215610bb357600080fd5b813567ffffffffffffffff811115610bca57600080fd5b610bd684828501610b14565b949350505050565b60008060408385031215610bf157600080fd5b823567ffffffffffffffff811115610c0857600080fd5b610c1485828601610b14565b95602094909401359450505050565b6020808252602e908201527f4f6e6c792074686520636f6e7472616374206f776e65722063616e2063616c6c60408201526d103a3434b990333ab731ba34b7b760911b606082015260800190565b600060208284031215610c8357600080fd5b5051919050565b600060208284031215610c9c57600080fd5b81518015158114610cac57600080fd5b9392505050565b600082610cd057634e487b7160e01b600052601260045260246000fd5b500490565b6000815180845260005b81811015610cfb57602081850181015186830182015201610cdf565b81811115610d0d576000602083870101525b50601f01601f19169290920160200192915050565b60018060a01b0384168152826020820152606060408201526000610d496060830184610cd5565b95945050505050565b60018060a01b0385168152836020820152826040820152608060608201526000610d7f6080830184610cd5565b969550505050505056fea26469706673582212208f6e2e41fa12d812a581a7bf0d7fa43eb9afb5b7ab9664adba6b0abfa1de8b4264736f6c63430008090033",
  "linkReferences": {},
  "deployedLinkReferences": {}
}