{
  "_format": "hh-sol-artifact-1",
  "contractName": "ERC1155Token",
  "sourceName": "contracts/custom-tokens/ERC1155.contract.sol",
  "abi": [
    {
      "inputs": [],
      "stateMutability": "nonpayable",
      "type": "constructor"
    },
    {
      "anonymous": false,
      "inputs": [
        {
          "indexed": true,
          "internalType": "address",
          "name": "_owner",
          "type": "address"
        },
        {
          "indexed": true,
          "internalType": "address",
          "name": "_spender",
          "type": "address"
        },
        {
          "indexed": false,
          "internalType": "uint256",
          "name": "_id",
          "type": "uint256"
        },
        {
          "indexed": false,
          "internalType": "uint256",
          "name": "_amount",
          "type": "uint256"
        }
      ],
      "name": "Approval",
      "type": "event"
    },
    {
      "anonymous": false,
      "inputs": [
        {
          "indexed": true,
          "internalType": "address",
          "name": "from",
          "type": "address"
        },
        {
          "indexed": true,
          "internalType": "address",
          "name": "to",
          "type": "address"
        },
        {
          "indexed": true,
          "internalType": "uint256",
          "name": "tokenId",
          "type": "uint256"
        },
        {
          "indexed": false,
          "internalType": "uint256",
          "name": "amount",
          "type": "uint256"
        }
      ],
      "name": "Transfer",
      "type": "event"
    },
    {
      "anonymous": false,
      "inputs": [
        {
          "indexed": false,
          "internalType": "string",
          "name": "_value",
          "type": "string"
        },
        {
          "indexed": true,
          "internalType": "uint256",
          "name": "_id",
          "type": "uint256"
        }
      ],
      "name": "URI",
      "type": "event"
    },
    {
      "inputs": [],
      "name": "GOLD",
      "outputs": [
        {
          "internalType": "uint256",
          "name": "",
          "type": "uint256"
        }
      ],
      "stateMutability": "view",
      "type": "function"
    },
    {
      "inputs": [],
      "name": "SHIELD",
      "outputs": [
        {
          "internalType": "uint256",
          "name": "",
          "type": "uint256"
        }
      ],
      "stateMutability": "view",
      "type": "function"
    },
    {
      "inputs": [],
      "name": "SILVER",
      "outputs": [
        {
          "internalType": "uint256",
          "name": "",
          "type": "uint256"
        }
      ],
      "stateMutability": "view",
      "type": "function"
    },
    {
      "inputs": [],
      "name": "SWORD",
      "outputs": [
        {
          "internalType": "uint256",
          "name": "",
          "type": "uint256"
        }
      ],
      "stateMutability": "view",
      "type": "function"
    },
    {
      "inputs": [],
      "name": "THORS_HAMMER",
      "outputs": [
        {
          "internalType": "uint256",
          "name": "",
          "type": "uint256"
        }
      ],
      "stateMutability": "view",
      "type": "function"
    },
    {
      "inputs": [
        {
          "internalType": "address",
          "name": "to",
          "type": "address"
        },
        {
          "internalType": "uint256",
          "name": "tokenId",
          "type": "uint256"
        },
        {
          "internalType": "uint256",
          "name": "amount",
          "type": "uint256"
        },
        {
          "internalType": "string",
          "name": "tokenURI",
          "type": "string"
        }
      ],
      "name": "_mint",
      "outputs": [],
      "stateMutability": "nonpayable",
      "type": "function"
    },
    {
      "inputs": [
        {
          "internalType": "address",
          "name": "owner",
          "type": "address"
        },
        {
          "internalType": "address",
          "name": "spender",
          "type": "address"
        },
        {
          "internalType": "uint256",
          "name": "tokenId",
          "type": "uint256"
        }
      ],
      "name": "allowance",
      "outputs": [
        {
          "internalType": "uint256",
          "name": "",
          "type": "uint256"
        }
      ],
      "stateMutability": "view",
      "type": "function"
    },
    {
      "inputs": [
        {
          "internalType": "address",
          "name": "spender",
          "type": "address"
        },
        {
          "internalType": "uint256",
          "name": "tokenId",
          "type": "uint256"
        },
        {
          "internalType": "uint256",
          "name": "amount",
          "type": "uint256"
        }
      ],
      "name": "approve",
      "outputs": [],
      "stateMutability": "nonpayable",
      "type": "function"
    },
    {
      "inputs": [
        {
          "internalType": "address",
          "name": "owner",
          "type": "address"
        },
        {
          "internalType": "uint256",
          "name": "tokenId",
          "type": "uint256"
        }
      ],
      "name": "balanceOf",
      "outputs": [
        {
          "internalType": "uint256",
          "name": "",
          "type": "uint256"
        }
      ],
      "stateMutability": "view",
      "type": "function"
    },
    {
      "inputs": [
        {
          "internalType": "uint256",
          "name": "tokenId",
          "type": "uint256"
        }
      ],
      "name": "getTokenURI",
      "outputs": [
        {
          "internalType": "string",
          "name": "",
          "type": "string"
        }
      ],
      "stateMutability": "view",
      "type": "function"
    },
    {
      "inputs": [],
      "name": "name",
      "outputs": [
        {
          "internalType": "string",
          "name": "",
          "type": "string"
        }
      ],
      "stateMutability": "view",
      "type": "function"
    },
    {
      "inputs": [],
      "name": "symbol",
      "outputs": [
        {
          "internalType": "string",
          "name": "",
          "type": "string"
        }
      ],
      "stateMutability": "view",
      "type": "function"
    },
    {
      "inputs": [
        {
          "internalType": "address",
          "name": "to",
          "type": "address"
        },
        {
          "internalType": "uint256",
          "name": "tokenId",
          "type": "uint256"
        },
        {
          "internalType": "uint256",
          "name": "amount",
          "type": "uint256"
        }
      ],
      "name": "transfer",
      "outputs": [],
      "stateMutability": "nonpayable",
      "type": "function"
    },
    {
      "inputs": [
        {
          "internalType": "address",
          "name": "from",
          "type": "address"
        },
        {
          "internalType": "address",
          "name": "to",
          "type": "address"
        },
        {
          "internalType": "uint256",
          "name": "tokenId",
          "type": "uint256"
        },
        {
          "internalType": "uint256",
          "name": "amount",
          "type": "uint256"
        }
      ],
      "name": "transferFrom",
      "outputs": [],
      "stateMutability": "nonpayable",
      "type": "function"
    }
  ],
  "bytecode": "0x60806040523480156200001157600080fd5b50604080518082018252600e81526d26bca2a92198989a9aaa37b5b2b760911b6020808301918252835180850190945260068452654d593131353560d01b908401528151919291620000669160009162000328565b5080516200007c90600190602084019062000328565b505050620000ab336000670de0b6b3a7640000604051806020016040528060008152506200015660201b60201c565b620000db3360016b033b2e3c9fd0803ce8000000604051806020016040528060008152506200015660201b60201c565b620001003360026001604051806020016040528060008152506200015660201b60201c565b62000128336003633b9aca00604051806020016040528060008152506200015660201b60201c565b62000150336004633b9aca00604051806020016040528060008152506200015660201b60201c565b6200048a565b6001600160a01b038416620001b25760405162461bcd60e51b815260206004820152601860248201527f455243313135353a20496e76616c69642061646472657373000000000000000060448201526064015b60405180910390fd5b6000838152600560205260409020546001600160a01b031615620002195760405162461bcd60e51b815260206004820152601d60248201527f455243313135353a20546f6b656e20616c7265616479206578697374730000006044820152606401620001a9565b600083815260056020908152604080832080546001600160a01b031916331790556001600160a01b0387168352600382528083208684529091528120839055600280548492906200026c908490620003ce565b90915550506040805160208082018352838252600086815260068252929092208151805192939192620002a3928492019062000328565b50506040518381528491506001600160a01b0386169033907f9ed053bb818ff08b8353cd46f78db1f0799f31c9e4458fdb425c10eccd2efc449060200160405180910390a4827f6bb7ff708619ba0610cba295a58592e0451dee2622938c8755667688daf3529b826040516200031a9190620003f5565b60405180910390a250505050565b82805462000336906200044d565b90600052602060002090601f0160209004810192826200035a5760008555620003a5565b82601f106200037557805160ff1916838001178555620003a5565b82800160010185558215620003a5579182015b82811115620003a557825182559160200191906001019062000388565b50620003b3929150620003b7565b5090565b5b80821115620003b35760008155600101620003b8565b60008219821115620003f057634e487b7160e01b600052601160045260246000fd5b500190565b600060208083528351808285015260005b81811015620004245785810183015185820160400152820162000406565b8181111562000437576000604083870101525b50601f01601f1916929092016040019392505050565b600181811c908216806200046257607f821691505b602082108114156200048457634e487b7160e01b600052602260045260246000fd5b50919050565b610dc8806200049a6000396000f3fe608060405234801561001057600080fd5b50600436106100e95760003560e01c8063598af9e71161008c578063bd52e1e511610066578063bd52e1e5146101e9578063d562e204146101fc578063e3e55f0814610204578063fe99049a1461020c57600080fd5b8063598af9e7146101975780635b2725ed146101d957806395d89b41146101e157600080fd5b806313dc989f116100c857806313dc989f146101615780633bb3a24d146101695780633e4bee381461017c578063426a84931461018457600080fd5b8062fdd58e146100ee57806306fdde0314610137578063095bcdb61461014c575b600080fd5b6101246100fc366004610a70565b6001600160a01b03919091166000908152600360209081526040808320938352929052205490565b6040519081526020015b60405180910390f35b61013f61021f565b60405161012e9190610a9a565b61015f61015a366004610aef565b6102ad565b005b610124600381565b61013f610177366004610b22565b61042a565b610124600081565b61015f610192366004610aef565b6104ff565b6101246101a5366004610b3b565b6001600160a01b03928316600090815260046020908152604080832093835292815282822093909416815291909252205490565b610124600481565b61013f6105ca565b61015f6101f7366004610b8d565b6105d7565b610124600281565b610124600181565b61015f61021a366004610c62565b61076b565b6000805461022c90610ca4565b80601f016020809104026020016040519081016040528092919081815260200182805461025890610ca4565b80156102a55780601f1061027a576101008083540402835291602001916102a5565b820191906000526020600020905b81548152906001019060200180831161028857829003601f168201915b505050505081565b6000828152600560205260409020546001600160a01b0316806102eb5760405162461bcd60e51b81526004016102e290610cdf565b60405180910390fd5b6001600160a01b0384166103115760405162461bcd60e51b81526004016102e290610d16565b33600090815260036020908152604080832086845290915290205482111561037b5760405162461bcd60e51b815260206004820152601d60248201527f455243313135353a20496e73756666696369656e742062616c616e636500000060448201526064016102e2565b336000908152600360209081526040808320868452909152812080548492906103a5908490610d63565b90915550506001600160a01b0384166000908152600360209081526040808320868452909152812080548492906103dd908490610d7a565b909155505060405182815283906001600160a01b0386169033907f9ed053bb818ff08b8353cd46f78db1f0799f31c9e4458fdb425c10eccd2efc449060200160405180910390a450505050565b6000818152600560205260409020546060906001600160a01b03166104615760405162461bcd60e51b81526004016102e290610cdf565b6000828152600660205260409020805461047a90610ca4565b80601f01602080910402602001604051908101604052809291908181526020018280546104a690610ca4565b80156104f35780601f106104c8576101008083540402835291602001916104f3565b820191906000526020600020905b8154815290600101906020018083116104d657829003601f168201915b50505050509050919050565b6000828152600560205260409020546001600160a01b0316806105345760405162461bcd60e51b81526004016102e290610cdf565b6001600160a01b03841661055a5760405162461bcd60e51b81526004016102e290610d16565b33600081815260046020908152604080832087845282528083206001600160a01b0389168085529083529281902086905580518781529182018690529192917fb3fd5071835887567a0671151121894ddccc2842f1d10bedad13e0d17cace9a7910160405180910390a350505050565b6001805461022c90610ca4565b6001600160a01b0384166105fd5760405162461bcd60e51b81526004016102e290610d16565b6000838152600560205260409020546001600160a01b0316156106625760405162461bcd60e51b815260206004820152601d60248201527f455243313135353a20546f6b656e20616c72656164792065786973747300000060448201526064016102e2565b600083815260056020908152604080832080546001600160a01b031916331790556001600160a01b0387168352600382528083208684529091528120839055600280548492906106b3908490610d7a565b909155505060408051602080820183528382526000868152600682529290922081518051929391926106e892849201906109bb565b50506040518381528491506001600160a01b0386169033907f9ed053bb818ff08b8353cd46f78db1f0799f31c9e4458fdb425c10eccd2efc449060200160405180910390a4827f6bb7ff708619ba0610cba295a58592e0451dee2622938c8755667688daf3529b8260405161075d9190610a9a565b60405180910390a250505050565b6000828152600560205260409020546001600160a01b0316806107a05760405162461bcd60e51b81526004016102e290610cdf565b6001600160a01b0384166107c65760405162461bcd60e51b81526004016102e290610d16565b6001600160a01b03851660009081526003602090815260408083208684529091529020548211156108395760405162461bcd60e51b815260206004820152601d60248201527f455243313135353a20496e73756666696369656e742062616c616e636500000060448201526064016102e2565b6001600160a01b038516600090815260046020908152604080832086845282528083203384529091529020548211156108b45760405162461bcd60e51b815260206004820152601b60248201527f455243313135353a20416c6c6f77616e6365206578636565646564000000000060448201526064016102e2565b6001600160a01b0385166000908152600360209081526040808320868452909152812080548492906108e7908490610d63565b90915550506001600160a01b03841660009081526003602090815260408083208684529091528120805484929061091f908490610d7a565b90915550506001600160a01b038516600090815260046020908152604080832086845282528083203384529091528120805484929061095f908490610d63565b9250508190555082846001600160a01b0316866001600160a01b03167f9ed053bb818ff08b8353cd46f78db1f0799f31c9e4458fdb425c10eccd2efc44856040516109ac91815260200190565b60405180910390a45050505050565b8280546109c790610ca4565b90600052602060002090601f0160209004810192826109e95760008555610a2f565b82601f10610a0257805160ff1916838001178555610a2f565b82800160010185558215610a2f579182015b82811115610a2f578251825591602001919060010190610a14565b50610a3b929150610a3f565b5090565b5b80821115610a3b5760008155600101610a40565b80356001600160a01b0381168114610a6b57600080fd5b919050565b60008060408385031215610a8357600080fd5b610a8c83610a54565b946020939093013593505050565b600060208083528351808285015260005b81811015610ac757858101830151858201604001528201610aab565b81811115610ad9576000604083870101525b50601f01601f1916929092016040019392505050565b600080600060608486031215610b0457600080fd5b610b0d84610a54565b95602085013595506040909401359392505050565b600060208284031215610b3457600080fd5b5035919050565b600080600060608486031215610b5057600080fd5b610b5984610a54565b9250610b6760208501610a54565b9150604084013590509250925092565b634e487b7160e01b600052604160045260246000fd5b60008060008060808587031215610ba357600080fd5b610bac85610a54565b93506020850135925060408501359150606085013567ffffffffffffffff80821115610bd757600080fd5b818701915087601f830112610beb57600080fd5b813581811115610bfd57610bfd610b77565b604051601f8201601f19908116603f01168101908382118183101715610c2557610c25610b77565b816040528281528a6020848701011115610c3e57600080fd5b82602086016020830137600060208483010152809550505050505092959194509250565b60008060008060808587031215610c7857600080fd5b610c8185610a54565b9350610c8f60208601610a54565b93969395505050506040820135916060013590565b600181811c90821680610cb857607f821691505b60208210811415610cd957634e487b7160e01b600052602260045260246000fd5b50919050565b6020808252601d908201527f455243313135353a20546f6b656e20646f6573206e6f74206578697374000000604082015260600190565b60208082526018908201527f455243313135353a20496e76616c696420616464726573730000000000000000604082015260600190565b634e487b7160e01b600052601160045260246000fd5b600082821015610d7557610d75610d4d565b500390565b60008219821115610d8d57610d8d610d4d565b50019056fea2646970667358221220d794f1b219cdfe39550be4c4eb9e9a84e84f41c74e562034596bd6ed8deda84764736f6c63430008090033",
  "linkReferences": {},
  "deployedLinkReferences": {}
}