{
  "_format": "hh-sol-artifact-1",
  "contractName": "ERC1155Token",
  "sourceName": "contracts/custom-tokens/ERC1155.contract.sol",
  "abi": [
    {
      "inputs": [],
      "stateMutability": "nonpayable",
      "type": "constructor"
    },
    {
      "anonymous": false,
      "inputs": [
        {
          "indexed": true,
          "internalType": "address",
          "name": "_owner",
          "type": "address"
        },
        {
          "indexed": true,
          "internalType": "address",
          "name": "_spender",
          "type": "address"
        },
        {
          "indexed": false,
          "internalType": "uint256",
          "name": "_id",
          "type": "uint256"
        },
        {
          "indexed": false,
          "internalType": "uint256",
          "name": "_amount",
          "type": "uint256"
        }
      ],
      "name": "Approval",
      "type": "event"
    },
    {
      "anonymous": false,
      "inputs": [
        {
          "indexed": true,
          "internalType": "address",
          "name": "from",
          "type": "address"
        },
        {
          "indexed": true,
          "internalType": "address",
          "name": "to",
          "type": "address"
        },
        {
          "indexed": true,
          "internalType": "uint256",
          "name": "tokenId",
          "type": "uint256"
        },
        {
          "indexed": false,
          "internalType": "uint256",
          "name": "amount",
          "type": "uint256"
        }
      ],
      "name": "Transfer",
      "type": "event"
    },
    {
      "anonymous": false,
      "inputs": [
        {
          "indexed": false,
          "internalType": "string",
          "name": "_value",
          "type": "string"
        },
        {
          "indexed": true,
          "internalType": "uint256",
          "name": "_id",
          "type": "uint256"
        }
      ],
      "name": "URI",
      "type": "event"
    },
    {
      "inputs": [
        {
          "internalType": "address",
          "name": "to",
          "type": "address"
        },
        {
          "internalType": "uint256",
          "name": "tokenId",
          "type": "uint256"
        },
        {
          "internalType": "uint256",
          "name": "amount",
          "type": "uint256"
        },
        {
          "internalType": "string",
          "name": "tokenURI",
          "type": "string"
        }
      ],
      "name": "_mint",
      "outputs": [],
      "stateMutability": "nonpayable",
      "type": "function"
    },
    {
      "inputs": [
        {
          "internalType": "address",
          "name": "owner",
          "type": "address"
        },
        {
          "internalType": "address",
          "name": "spender",
          "type": "address"
        },
        {
          "internalType": "uint256",
          "name": "tokenId",
          "type": "uint256"
        }
      ],
      "name": "allowance",
      "outputs": [
        {
          "internalType": "uint256",
          "name": "",
          "type": "uint256"
        }
      ],
      "stateMutability": "view",
      "type": "function"
    },
    {
      "inputs": [
        {
          "internalType": "address",
          "name": "spender",
          "type": "address"
        },
        {
          "internalType": "uint256",
          "name": "tokenId",
          "type": "uint256"
        },
        {
          "internalType": "uint256",
          "name": "amount",
          "type": "uint256"
        }
      ],
      "name": "approve",
      "outputs": [],
      "stateMutability": "nonpayable",
      "type": "function"
    },
    {
      "inputs": [
        {
          "internalType": "address",
          "name": "owner",
          "type": "address"
        },
        {
          "internalType": "uint256",
          "name": "tokenId",
          "type": "uint256"
        }
      ],
      "name": "balanceOf",
      "outputs": [
        {
          "internalType": "uint256",
          "name": "",
          "type": "uint256"
        }
      ],
      "stateMutability": "view",
      "type": "function"
    },
    {
      "inputs": [
        {
          "internalType": "address",
          "name": "owner",
          "type": "address"
        }
      ],
      "name": "getOwnedTokenCount",
      "outputs": [
        {
          "internalType": "uint256",
          "name": "",
          "type": "uint256"
        }
      ],
      "stateMutability": "view",
      "type": "function"
    },
    {
      "inputs": [
        {
          "internalType": "uint256",
          "name": "tokenId",
          "type": "uint256"
        }
      ],
      "name": "getTokenURI",
      "outputs": [
        {
          "internalType": "string",
          "name": "",
          "type": "string"
        }
      ],
      "stateMutability": "view",
      "type": "function"
    },
    {
      "inputs": [],
      "name": "name",
      "outputs": [
        {
          "internalType": "string",
          "name": "",
          "type": "string"
        }
      ],
      "stateMutability": "view",
      "type": "function"
    },
    {
      "inputs": [],
      "name": "symbol",
      "outputs": [
        {
          "internalType": "string",
          "name": "",
          "type": "string"
        }
      ],
      "stateMutability": "view",
      "type": "function"
    },
    {
      "inputs": [
        {
          "internalType": "address",
          "name": "to",
          "type": "address"
        },
        {
          "internalType": "uint256",
          "name": "tokenId",
          "type": "uint256"
        },
        {
          "internalType": "uint256",
          "name": "amount",
          "type": "uint256"
        }
      ],
      "name": "transfer",
      "outputs": [],
      "stateMutability": "nonpayable",
      "type": "function"
    },
    {
      "inputs": [
        {
          "internalType": "address",
          "name": "from",
          "type": "address"
        },
        {
          "internalType": "address",
          "name": "to",
          "type": "address"
        },
        {
          "internalType": "uint256",
          "name": "tokenId",
          "type": "uint256"
        },
        {
          "internalType": "uint256",
          "name": "amount",
          "type": "uint256"
        }
      ],
      "name": "transferFrom",
      "outputs": [],
      "stateMutability": "nonpayable",
      "type": "function"
    }
  ],
  "bytecode": "0x60806040523480156200001157600080fd5b50604080518082018252600e81526d26bca2a92198989a9aaa37b5b2b760911b6020808301918252835180850190945260068452654d593131353560d01b908401528151919291620000669160009162000085565b5080516200007c90600190602084019062000085565b50505062000168565b82805462000093906200012b565b90600052602060002090601f016020900481019282620000b7576000855562000102565b82601f10620000d257805160ff191683800117855562000102565b8280016001018555821562000102579182015b8281111562000102578251825591602001919060010190620000e5565b506200011092915062000114565b5090565b5b8082111562000110576000815560010162000115565b600181811c908216806200014057607f821691505b602082108114156200016257634e487b7160e01b600052602260045260246000fd5b50919050565b610e6980620001786000396000f3fe608060405234801561001057600080fd5b506004361061009d5760003560e01c8063598af9e711610066578063598af9e71461013b57806395d89b411461017d578063bd52e1e514610185578063c0b3ab5614610198578063fe99049a146101ab57600080fd5b8062fdd58e146100a257806306fdde03146100eb578063095bcdb6146101005780633bb3a24d14610115578063426a849314610128575b600080fd5b6100d86100b0366004610abe565b6001600160a01b03919091166000908152600460209081526040808320938352929052205490565b6040519081526020015b60405180910390f35b6100f36101be565b6040516100e29190610ae8565b61011361010e366004610b3d565b61024c565b005b6100f3610123366004610b70565b6103c9565b610113610136366004610b3d565b61049e565b6100d8610149366004610b89565b6001600160a01b03928316600090815260056020908152604080832093835292815282822093909416815291909252205490565b6100f3610569565b610113610193366004610bdb565b610576565b6100d86101a6366004610cb0565b61073f565b6101136101b9366004610cd2565b6107b9565b600080546101cb90610d14565b80601f01602080910402602001604051908101604052809291908181526020018280546101f790610d14565b80156102445780601f1061021957610100808354040283529160200191610244565b820191906000526020600020905b81548152906001019060200180831161022757829003601f168201915b505050505081565b6000828152600660205260409020546001600160a01b03168061028a5760405162461bcd60e51b815260040161028190610d4f565b60405180910390fd5b6001600160a01b0384166102b05760405162461bcd60e51b815260040161028190610d86565b33600090815260046020908152604080832086845290915290205482111561031a5760405162461bcd60e51b815260206004820152601d60248201527f455243313135353a20496e73756666696369656e742062616c616e63650000006044820152606401610281565b33600090815260046020908152604080832086845290915281208054849290610344908490610dd3565b90915550506001600160a01b03841660009081526004602090815260408083208684529091528120805484929061037c908490610dea565b909155505060405182815283906001600160a01b0386169033907f9ed053bb818ff08b8353cd46f78db1f0799f31c9e4458fdb425c10eccd2efc449060200160405180910390a450505050565b6000818152600660205260409020546060906001600160a01b03166104005760405162461bcd60e51b815260040161028190610d4f565b6000828152600760205260409020805461041990610d14565b80601f016020809104026020016040519081016040528092919081815260200182805461044590610d14565b80156104925780601f1061046757610100808354040283529160200191610492565b820191906000526020600020905b81548152906001019060200180831161047557829003601f168201915b50505050509050919050565b6000828152600660205260409020546001600160a01b0316806104d35760405162461bcd60e51b815260040161028190610d4f565b6001600160a01b0384166104f95760405162461bcd60e51b815260040161028190610d86565b33600081815260056020908152604080832087845282528083206001600160a01b0389168085529083529281902086905580518781529182018690529192917fb3fd5071835887567a0671151121894ddccc2842f1d10bedad13e0d17cace9a7910160405180910390a350505050565b600180546101cb90610d14565b6001600160a01b03841661059c5760405162461bcd60e51b815260040161028190610d86565b6000838152600660205260409020546001600160a01b0316156106015760405162461bcd60e51b815260206004820152601d60248201527f455243313135353a20546f6b656e20616c7265616479206578697374730000006044820152606401610281565b600083815260066020908152604080832080546001600160a01b031916331790556001600160a01b038716835260048252808320868452909152812083905560028054849290610652908490610dea565b909155505060408051602080820183528382526000868152600782529290922081518051929391926106879284920190610a09565b5050600380546001810182556000919091527fc2575a0e9e593c00f959f8c92f12db2869c3395a3b0502d05e2516446f71f85b018490555060405182815283906001600160a01b0386169033907f9ed053bb818ff08b8353cd46f78db1f0799f31c9e4458fdb425c10eccd2efc449060200160405180910390a4827f6bb7ff708619ba0610cba295a58592e0451dee2622938c8755667688daf3529b826040516107319190610ae8565b60405180910390a250505050565b600080805b6003548110156107b25760006003828154811061076357610763610e02565b60009182526020808320909101546001600160a01b038816835260048252604080842082855290925291205490915061079c9084610dea565b92505080806107aa90610e18565b915050610744565b5092915050565b6000828152600660205260409020546001600160a01b0316806107ee5760405162461bcd60e51b815260040161028190610d4f565b6001600160a01b0384166108145760405162461bcd60e51b815260040161028190610d86565b6001600160a01b03851660009081526004602090815260408083208684529091529020548211156108875760405162461bcd60e51b815260206004820152601d60248201527f455243313135353a20496e73756666696369656e742062616c616e63650000006044820152606401610281565b6001600160a01b038516600090815260056020908152604080832086845282528083203384529091529020548211156109025760405162461bcd60e51b815260206004820152601b60248201527f455243313135353a20416c6c6f77616e636520657863656564656400000000006044820152606401610281565b6001600160a01b038516600090815260046020908152604080832086845290915281208054849290610935908490610dd3565b90915550506001600160a01b03841660009081526004602090815260408083208684529091528120805484929061096d908490610dea565b90915550506001600160a01b03851660009081526005602090815260408083208684528252808320338452909152812080548492906109ad908490610dd3565b9250508190555082846001600160a01b0316866001600160a01b03167f9ed053bb818ff08b8353cd46f78db1f0799f31c9e4458fdb425c10eccd2efc44856040516109fa91815260200190565b60405180910390a45050505050565b828054610a1590610d14565b90600052602060002090601f016020900481019282610a375760008555610a7d565b82601f10610a5057805160ff1916838001178555610a7d565b82800160010185558215610a7d579182015b82811115610a7d578251825591602001919060010190610a62565b50610a89929150610a8d565b5090565b5b80821115610a895760008155600101610a8e565b80356001600160a01b0381168114610ab957600080fd5b919050565b60008060408385031215610ad157600080fd5b610ada83610aa2565b946020939093013593505050565b600060208083528351808285015260005b81811015610b1557858101830151858201604001528201610af9565b81811115610b27576000604083870101525b50601f01601f1916929092016040019392505050565b600080600060608486031215610b5257600080fd5b610b5b84610aa2565b95602085013595506040909401359392505050565b600060208284031215610b8257600080fd5b5035919050565b600080600060608486031215610b9e57600080fd5b610ba784610aa2565b9250610bb560208501610aa2565b9150604084013590509250925092565b634e487b7160e01b600052604160045260246000fd5b60008060008060808587031215610bf157600080fd5b610bfa85610aa2565b93506020850135925060408501359150606085013567ffffffffffffffff80821115610c2557600080fd5b818701915087601f830112610c3957600080fd5b813581811115610c4b57610c4b610bc5565b604051601f8201601f19908116603f01168101908382118183101715610c7357610c73610bc5565b816040528281528a6020848701011115610c8c57600080fd5b82602086016020830137600060208483010152809550505050505092959194509250565b600060208284031215610cc257600080fd5b610ccb82610aa2565b9392505050565b60008060008060808587031215610ce857600080fd5b610cf185610aa2565b9350610cff60208601610aa2565b93969395505050506040820135916060013590565b600181811c90821680610d2857607f821691505b60208210811415610d4957634e487b7160e01b600052602260045260246000fd5b50919050565b6020808252601d908201527f455243313135353a20546f6b656e20646f6573206e6f74206578697374000000604082015260600190565b60208082526018908201527f455243313135353a20496e76616c696420616464726573730000000000000000604082015260600190565b634e487b7160e01b600052601160045260246000fd5b600082821015610de557610de5610dbd565b500390565b60008219821115610dfd57610dfd610dbd565b500190565b634e487b7160e01b600052603260045260246000fd5b6000600019821415610e2c57610e2c610dbd565b506001019056fea2646970667358221220566d0947ac75da80408a57775571a066651a2618ce56b96668fc2c94b48b3bf764736f6c63430008090033",
  "linkReferences": {},
  "deployedLinkReferences": {}
}