{
  "_format": "hh-sol-artifact-1",
  "contractName": "ERC1155Interface",
  "sourceName": "contracts/custom-tokens/interfaces/ERC1155.interface.sol",
  "abi": [
    {
      "inputs": [
        {
          "internalType": "string",
          "name": "_name",
          "type": "string"
        },
        {
          "internalType": "string",
          "name": "_symbol",
          "type": "string"
        }
      ],
      "stateMutability": "nonpayable",
      "type": "constructor"
    },
    {
      "anonymous": false,
      "inputs": [
        {
          "indexed": true,
          "internalType": "address",
          "name": "_owner",
          "type": "address"
        },
        {
          "indexed": true,
          "internalType": "address",
          "name": "_spender",
          "type": "address"
        },
        {
          "indexed": false,
          "internalType": "uint256",
          "name": "_id",
          "type": "uint256"
        },
        {
          "indexed": false,
          "internalType": "uint256",
          "name": "_amount",
          "type": "uint256"
        }
      ],
      "name": "Approval",
      "type": "event"
    },
    {
      "anonymous": false,
      "inputs": [
        {
          "indexed": true,
          "internalType": "address",
          "name": "from",
          "type": "address"
        },
        {
          "indexed": true,
          "internalType": "address",
          "name": "to",
          "type": "address"
        },
        {
          "indexed": true,
          "internalType": "uint256",
          "name": "tokenId",
          "type": "uint256"
        },
        {
          "indexed": false,
          "internalType": "uint256",
          "name": "amount",
          "type": "uint256"
        }
      ],
      "name": "Transfer",
      "type": "event"
    },
    {
      "anonymous": false,
      "inputs": [
        {
          "indexed": false,
          "internalType": "string",
          "name": "_value",
          "type": "string"
        },
        {
          "indexed": true,
          "internalType": "uint256",
          "name": "_id",
          "type": "uint256"
        }
      ],
      "name": "URI",
      "type": "event"
    },
    {
      "inputs": [
        {
          "internalType": "address",
          "name": "to",
          "type": "address"
        },
        {
          "internalType": "uint256",
          "name": "tokenId",
          "type": "uint256"
        },
        {
          "internalType": "uint256",
          "name": "amount",
          "type": "uint256"
        },
        {
          "internalType": "string",
          "name": "tokenURI",
          "type": "string"
        }
      ],
      "name": "_mint",
      "outputs": [],
      "stateMutability": "nonpayable",
      "type": "function"
    },
    {
      "inputs": [
        {
          "internalType": "address",
          "name": "owner",
          "type": "address"
        },
        {
          "internalType": "address",
          "name": "spender",
          "type": "address"
        },
        {
          "internalType": "uint256",
          "name": "tokenId",
          "type": "uint256"
        }
      ],
      "name": "allowance",
      "outputs": [
        {
          "internalType": "uint256",
          "name": "",
          "type": "uint256"
        }
      ],
      "stateMutability": "view",
      "type": "function"
    },
    {
      "inputs": [
        {
          "internalType": "address",
          "name": "spender",
          "type": "address"
        },
        {
          "internalType": "uint256",
          "name": "tokenId",
          "type": "uint256"
        },
        {
          "internalType": "uint256",
          "name": "amount",
          "type": "uint256"
        }
      ],
      "name": "approve",
      "outputs": [],
      "stateMutability": "nonpayable",
      "type": "function"
    },
    {
      "inputs": [
        {
          "internalType": "address",
          "name": "owner",
          "type": "address"
        },
        {
          "internalType": "uint256",
          "name": "tokenId",
          "type": "uint256"
        }
      ],
      "name": "balanceOf",
      "outputs": [
        {
          "internalType": "uint256",
          "name": "",
          "type": "uint256"
        }
      ],
      "stateMutability": "view",
      "type": "function"
    },
    {
      "inputs": [
        {
          "internalType": "uint256",
          "name": "tokenId",
          "type": "uint256"
        }
      ],
      "name": "getTokenURI",
      "outputs": [
        {
          "internalType": "string",
          "name": "",
          "type": "string"
        }
      ],
      "stateMutability": "view",
      "type": "function"
    },
    {
      "inputs": [],
      "name": "name",
      "outputs": [
        {
          "internalType": "string",
          "name": "",
          "type": "string"
        }
      ],
      "stateMutability": "view",
      "type": "function"
    },
    {
      "inputs": [],
      "name": "symbol",
      "outputs": [
        {
          "internalType": "string",
          "name": "",
          "type": "string"
        }
      ],
      "stateMutability": "view",
      "type": "function"
    },
    {
      "inputs": [
        {
          "internalType": "address",
          "name": "to",
          "type": "address"
        },
        {
          "internalType": "uint256",
          "name": "tokenId",
          "type": "uint256"
        },
        {
          "internalType": "uint256",
          "name": "amount",
          "type": "uint256"
        }
      ],
      "name": "transfer",
      "outputs": [],
      "stateMutability": "nonpayable",
      "type": "function"
    },
    {
      "inputs": [
        {
          "internalType": "address",
          "name": "from",
          "type": "address"
        },
        {
          "internalType": "address",
          "name": "to",
          "type": "address"
        },
        {
          "internalType": "uint256",
          "name": "tokenId",
          "type": "uint256"
        },
        {
          "internalType": "uint256",
          "name": "amount",
          "type": "uint256"
        }
      ],
      "name": "transferFrom",
      "outputs": [],
      "stateMutability": "nonpayable",
      "type": "function"
    }
  ],
  "bytecode": "0x60806040523480156200001157600080fd5b5060405162000fdb38038062000fdb8339810160408190526200003491620001db565b81516200004990600090602085019062000068565b5080516200005f90600190602084019062000068565b50505062000282565b828054620000769062000245565b90600052602060002090601f0160209004810192826200009a5760008555620000e5565b82601f10620000b557805160ff1916838001178555620000e5565b82800160010185558215620000e5579182015b82811115620000e5578251825591602001919060010190620000c8565b50620000f3929150620000f7565b5090565b5b80821115620000f35760008155600101620000f8565b634e487b7160e01b600052604160045260246000fd5b600082601f8301126200013657600080fd5b81516001600160401b03808211156200015357620001536200010e565b604051601f8301601f19908116603f011681019082821181831017156200017e576200017e6200010e565b816040528381526020925086838588010111156200019b57600080fd5b600091505b83821015620001bf5785820183015181830184015290820190620001a0565b83821115620001d15760008385830101525b9695505050505050565b60008060408385031215620001ef57600080fd5b82516001600160401b03808211156200020757600080fd5b620002158683870162000124565b935060208501519150808211156200022c57600080fd5b506200023b8582860162000124565b9150509250929050565b600181811c908216806200025a57607f821691505b602082108114156200027c57634e487b7160e01b600052602260045260246000fd5b50919050565b610d4980620002926000396000f3fe608060405234801561001057600080fd5b50600436106100925760003560e01c8063426a849311610066578063426a84931461011d578063598af9e71461013057806395d89b4114610172578063bd52e1e51461017a578063fe99049a1461018d57600080fd5b8062fdd58e1461009757806306fdde03146100e0578063095bcdb6146100f55780633bb3a24d1461010a575b600080fd5b6100cd6100a53660046109f1565b6001600160a01b03919091166000908152600360209081526040808320938352929052205490565b6040519081526020015b60405180910390f35b6100e86101a0565b6040516100d79190610a1b565b610108610103366004610a70565b61022e565b005b6100e8610118366004610aa3565b6103ab565b61010861012b366004610a70565b610480565b6100cd61013e366004610abc565b6001600160a01b03928316600090815260046020908152604080832093835292815282822093909416815291909252205490565b6100e861054b565b610108610188366004610b0e565b610558565b61010861019b366004610be3565b6106ec565b600080546101ad90610c25565b80601f01602080910402602001604051908101604052809291908181526020018280546101d990610c25565b80156102265780601f106101fb57610100808354040283529160200191610226565b820191906000526020600020905b81548152906001019060200180831161020957829003601f168201915b505050505081565b6000828152600560205260409020546001600160a01b03168061026c5760405162461bcd60e51b815260040161026390610c60565b60405180910390fd5b6001600160a01b0384166102925760405162461bcd60e51b815260040161026390610c97565b3360009081526003602090815260408083208684529091529020548211156102fc5760405162461bcd60e51b815260206004820152601d60248201527f455243313135353a20496e73756666696369656e742062616c616e63650000006044820152606401610263565b33600090815260036020908152604080832086845290915281208054849290610326908490610ce4565b90915550506001600160a01b03841660009081526003602090815260408083208684529091528120805484929061035e908490610cfb565b909155505060405182815283906001600160a01b0386169033907f9ed053bb818ff08b8353cd46f78db1f0799f31c9e4458fdb425c10eccd2efc449060200160405180910390a450505050565b6000818152600560205260409020546060906001600160a01b03166103e25760405162461bcd60e51b815260040161026390610c60565b600082815260066020526040902080546103fb90610c25565b80601f016020809104026020016040519081016040528092919081815260200182805461042790610c25565b80156104745780601f1061044957610100808354040283529160200191610474565b820191906000526020600020905b81548152906001019060200180831161045757829003601f168201915b50505050509050919050565b6000828152600560205260409020546001600160a01b0316806104b55760405162461bcd60e51b815260040161026390610c60565b6001600160a01b0384166104db5760405162461bcd60e51b815260040161026390610c97565b33600081815260046020908152604080832087845282528083206001600160a01b0389168085529083529281902086905580518781529182018690529192917fb3fd5071835887567a0671151121894ddccc2842f1d10bedad13e0d17cace9a7910160405180910390a350505050565b600180546101ad90610c25565b6001600160a01b03841661057e5760405162461bcd60e51b815260040161026390610c97565b6000838152600560205260409020546001600160a01b0316156105e35760405162461bcd60e51b815260206004820152601d60248201527f455243313135353a20546f6b656e20616c7265616479206578697374730000006044820152606401610263565b600083815260056020908152604080832080546001600160a01b031916331790556001600160a01b038716835260038252808320868452909152812083905560028054849290610634908490610cfb565b90915550506040805160208082018352838252600086815260068252929092208151805192939192610669928492019061093c565b50506040518381528491506001600160a01b0386169033907f9ed053bb818ff08b8353cd46f78db1f0799f31c9e4458fdb425c10eccd2efc449060200160405180910390a4827f6bb7ff708619ba0610cba295a58592e0451dee2622938c8755667688daf3529b826040516106de9190610a1b565b60405180910390a250505050565b6000828152600560205260409020546001600160a01b0316806107215760405162461bcd60e51b815260040161026390610c60565b6001600160a01b0384166107475760405162461bcd60e51b815260040161026390610c97565b6001600160a01b03851660009081526003602090815260408083208684529091529020548211156107ba5760405162461bcd60e51b815260206004820152601d60248201527f455243313135353a20496e73756666696369656e742062616c616e63650000006044820152606401610263565b6001600160a01b038516600090815260046020908152604080832086845282528083203384529091529020548211156108355760405162461bcd60e51b815260206004820152601b60248201527f455243313135353a20416c6c6f77616e636520657863656564656400000000006044820152606401610263565b6001600160a01b038516600090815260036020908152604080832086845290915281208054849290610868908490610ce4565b90915550506001600160a01b0384166000908152600360209081526040808320868452909152812080548492906108a0908490610cfb565b90915550506001600160a01b03851660009081526004602090815260408083208684528252808320338452909152812080548492906108e0908490610ce4565b9250508190555082846001600160a01b0316866001600160a01b03167f9ed053bb818ff08b8353cd46f78db1f0799f31c9e4458fdb425c10eccd2efc448560405161092d91815260200190565b60405180910390a45050505050565b82805461094890610c25565b90600052602060002090601f01602090048101928261096a57600085556109b0565b82601f1061098357805160ff19168380011785556109b0565b828001600101855582156109b0579182015b828111156109b0578251825591602001919060010190610995565b506109bc9291506109c0565b5090565b5b808211156109bc57600081556001016109c1565b80356001600160a01b03811681146109ec57600080fd5b919050565b60008060408385031215610a0457600080fd5b610a0d836109d5565b946020939093013593505050565b600060208083528351808285015260005b81811015610a4857858101830151858201604001528201610a2c565b81811115610a5a576000604083870101525b50601f01601f1916929092016040019392505050565b600080600060608486031215610a8557600080fd5b610a8e846109d5565b95602085013595506040909401359392505050565b600060208284031215610ab557600080fd5b5035919050565b600080600060608486031215610ad157600080fd5b610ada846109d5565b9250610ae8602085016109d5565b9150604084013590509250925092565b634e487b7160e01b600052604160045260246000fd5b60008060008060808587031215610b2457600080fd5b610b2d856109d5565b93506020850135925060408501359150606085013567ffffffffffffffff80821115610b5857600080fd5b818701915087601f830112610b6c57600080fd5b813581811115610b7e57610b7e610af8565b604051601f8201601f19908116603f01168101908382118183101715610ba657610ba6610af8565b816040528281528a6020848701011115610bbf57600080fd5b82602086016020830137600060208483010152809550505050505092959194509250565b60008060008060808587031215610bf957600080fd5b610c02856109d5565b9350610c10602086016109d5565b93969395505050506040820135916060013590565b600181811c90821680610c3957607f821691505b60208210811415610c5a57634e487b7160e01b600052602260045260246000fd5b50919050565b6020808252601d908201527f455243313135353a20546f6b656e20646f6573206e6f74206578697374000000604082015260600190565b60208082526018908201527f455243313135353a20496e76616c696420616464726573730000000000000000604082015260600190565b634e487b7160e01b600052601160045260246000fd5b600082821015610cf657610cf6610cce565b500390565b60008219821115610d0e57610d0e610cce565b50019056fea2646970667358221220ef773fdb36a301213b700d7b66085a1bfe072346437c2dbd8d1382b24331029364736f6c63430008090033",
  "linkReferences": {},
  "deployedLinkReferences": {}
}